:020000040800F2
:1000000000500020E1060008E9080008EB0800089D
:10001000ED080008EF080008F108000800000000E3
:10002000000000000000000000000000F3080008CD
:10003000F508000800000000F7080008F9080008AB
:1000400031070008310700083107000831070008B0
:1000500031070008310700083107000831070008A0
:100060003107000831070008310700083107000890
:100070003107000831070008310700083107000880
:100080003107000831070008310700083107000870
:100090003107000831070008310700083107000860
:1000A0003107000831070008310700083107000850
:1000B0003107000831070008310700083107000840
:1000C0003107000831070008310700083107000830
:1000D0003107000831070008310700083107000820
:0C00E00031070008310700083107000854
:1000EC000348044B834202D0034B03B118477047BB
:1000FC000000002000000020000000000548064B16
:10010C001B1AD90F01EBA301491002D0034B03B109
:10011C00184770470000002000000020000000007D
:10012C0010B5064C237843B9FFF7DAFF044B13B133
:10013C000448AFF300800123237010BD00000020A1
:10014C00000000004409000808B5054B1BB1054927
:10015C000548AFF30080BDE80840FFF7CFBF00BFF4
:10016C0000000000040000204409000870B582B0B3
:10017C000121082000F0DAF914238DF8073003234D
:10018C008DF806304FF48076ADF804600C4C01A964
:10019C00204600F06DF94FF40075ADF8045001A93C
:1001AC00204600F065F901223146204600F0B8F9EE
:1001BC0001222946204600F0B3F902B070BD00BF01
:1001CC00000C014010B50D4C01224FF4007120467B
:1001DC0000F0A6F901224FF48071204600F0A0F93E
:1001EC0000224FF40071204600F09AF900224FF4DF
:1001FC008071204600F094F910BD00BF000C014046
:10020C0010B50A4C00224FF40071204600F088F91A
:10021C0001224FF48071204600F082F901224FF444
:10022C000071204600F07CF910BD00BF000C0140AD
:10023C0070B50646002416E080222241124D324051
:10024C004FF40071284600F06BF901224FF48071D5
:10025C00284600F065F900224FF48071284600F022
:10026C005FF90134E4B2072CE6D9074C01224FF4B4
:10027C008071204600F054F900224FF48071204622
:10028C0000F04EF970BD00BF000C014010B50446E3
:10029C00FFF798FF7820FFF7CBFF0020FFF7C8FF90
:1002AC002046FFF7C5FFFFF7ABFF10BD10B50446A6
:1002BC00FFF788FF7820FFF7BBFF4020FFF7B8FF60
:1002CC002046FFF7B5FFFFF79BFF10BD10B50C469E
:1002DC0040F0B000FFF7DAFF200940F01000FFF704
:1002EC00D5FF04F00F00FFF7D1FF10BD38B5002586
:1002FC0009E00020FFF7DAFF0134E4B214F0800FBC
:10030C00F7D00135EDB2072D05D800212846FFF7AF
:10031C00DDFF0024F2E738BD08B5002204E001330C
:10032C00B3F57A7FFBD30132B2F57A7F01D2002389
:10033C00F6E7FFF71BFFAE20FFF7A8FFD520FFF76E
:10034C00A5FF8020FFF7A2FFA820FFF79FFF3F200B
:10035C00FFF79CFFD320FFF799FF0020FFF796FFD4
:10036C004020FFF793FFA120FFF790FFC820FFF775
:10037C008DFFDA20FFF78AFF1220FFF787FF81201D
:10038C00FFF784FFCF20FFF781FFD920FFF77EFF17
:10039C00F120FFF77BFFDB20FFF778FF3020FFF722
:1003AC0075FFA420FFF772FFA620FFF76FFF8D20CB
:1003BC00FFF76CFF1420FFF769FFAF20FFF766FF14
:1003CC00FFF794FF08BD000030B589B00121084645
:1003DC0000F0BAF80121042000F0A8F818238DF8D9
:1003EC001F300223ADF81C3003238DF81E3007A9F3
:1003FC00194800F03DF84FF0804000F061F90024FE
:10040C00ADF81640ADF8124040F2E733ADF81430B9
:10041C0041F61F43ADF810308DF8184004A94FF089
:10042C00804000F09FF8684600F032F96023ADF888
:10043C000030ADF808400125ADF80250ADF806408B
:10044C0069464FF0804000F0D7F829464FF08040C5
:10045C0000F028F909B030BD0008014008B500EBE8
:10046C008000410089B24FF0804000F030F908BDA7
:10047C0030B5CB7803F00F02964613F0100F03D073
:10048C0091F802E04EEA020E0B78FBB105680023EE
:10049C0001E042610133072B17D801229A40B1F8D1
:1004AC0000C032EA0C0CF5D19C004FF00F0C0CFA8A
:1004BC0004FC25EA0C050EFA04F42543CC78282C10
:1004CC00E7D0482CE6D10261E4E705600B88FF2BEE
:1004DC0025D94568002303E0CC78482C1CD0013387
:1004EC00072B1BD803F1080C012202FA0CF2B1F80D
:1004FC0000C032EA0C0CF2D19C004FF00F0C0CFA3D
:10050C0004FC25EA0C0C0EFA04F444EA0C05CC7835
:10051C00282CE1D14261DFE70261E0E7456030BDA4
:10052C000AB10161704741617047000021B1054A71
:10053C009369034393617047024A936923EA00036A
:10054C00936170470010024021B1054AD3690343FF
:10055C00D3617047024AD36923EA0003D361704721
:10056C000010024003889BB2214A904212D002F53F
:10057C00006290420ED0B0F1804F0BD0A2F59832B1
:10058C00904207D002F58062904203D002F580625F
:10059C00904203D123F070034A881343154A9042CA
:1005AC0008D002F58062904204D023F440739BB2D1
:1005BC00CA88134303808B8883850B8803850C4B77
:1005CC0098420FD003F5006398420BD003F54063BB
:1005DC00984207D003F58063984203D003F58063FB
:1005EC00984201D10B7A038601238382704700BFA6
:1005FC00002C01400010004000B5038C9BB223F08E
:10060C0010039BB20384028C92B2B0F804E01FFA80
:10061C008EFEB0F818C01FFA8CFC2CF4E64C0B883C
:10062C001B029BB24CEA030C22F020020B891B012B
:10063C009BB21A434B881B019BB21343134A904243
:10064C0003D002F50062904217D123F080034A894F
:10065C00120192B2134323F040038A88120192B222
:10066C0013432EF4406E8A89920092B24EEA020E27
:10067C00CA89920092B242EA0E0EA0F804E0A0F8E9
:10068C0018C0CA88028703845DF804FB002C014063
:10069C000023038043808380C38003814381838153
:1006AC00C381704729B103889BB243F001030380D7
:1006BC00704703889BB223F001039BB20380704701
:1006CC0003899BB223F007039BB203817047018718
:1006DC00704700000D48854600F08CF80C480D4919
:1006EC000D4A914204D250F8043B41F8043BF8E720
:1006FC000A490B4A0023914202D241F8043BFAE723
:10070C0000F0F6F800F0BEF8FEE700000050002004
:10071C0064090008000000200000002000000020F8
:10072C0020000020FEE7000082B00023019300931C
:10073C002C4A136843F4803313602A4B1B6803F470
:10074C0000330093019B01330193009B1BB9019B68
:10075C00B3F5A06FF1D1234B1B6813F4003F06D007
:10076C0001230093009B012B04D002B0704700239F
:10077C000093F7E71C4B1A6842F010021A601A68D3
:10078C0022F003021A601A6842F002021A60A3F502
:10079C0080535A685A605A685A605A6842F48062A8
:1007AC005A605A6822F47C125A605A6842F4E81271
:1007BC005A601A6842F080721A600A4B1B6813F078
:1007CC00007FFAD0074B5A6822F003025A605A682D
:1007DC0042F002025A60034B5B6803F00C03082BD7
:1007EC00F9D1C2E7001002400020024008B5FFF723
:1007FC009BFF08BD08B5104B1A6842F001021A6045
:10080C0059680E4A0A405A601A6822F0847222F41F
:10081C0080321A601A6822F480221A605A6822F414
:10082C00FE025A604FF41F029A60FFF7DFFF044B81
:10083C004FF000629A6008BD001002400000FFF803
:10084C0000ED00E000EBC000C0004FF0E023586169
:10085C0000229A6105221A614FF0E0231B6913F400
:10086C00803FF9D04FF0E02304221A61704710B595
:10087C0004E04FF47A70FFF7E5FF2046441E002891
:10088C00F7D110BD08B5FFF747FDFFF79DFD15E04B
:10089C00C0F1640080B2FFF7E1FD0A20FFF7E7FF2B
:1008AC000D4A1378013313700B4B18786428EFD969
:1008BC0014221A70084B1878642803D9064B152299
:1008CC001A70F1E7FFF7CAFD0A20FFF7D0FF024AC2
:1008DC00137801331370EDE71C0000207047FEE71E
:1008EC00FEE7FEE7FEE77047704770477047000071
:1008FC0070B500260C4D0D4C641BA410A64209D1FA
:10090C0000F01AF800260A4D0A4C641BA410A642EB
:10091C0005D170BD55F8043B98470136EEE755F804
:10092C00043B98470136F2E75C0900085C090008B3
:10093C005C09000860090008F8B500BFF8BC08BCE9
:10094C009E467047F8B500BFF8BC08BC9E46704781
:04095C005501000839
:040960002D0100085D
:04000005080006E108
:00000001FF
